:020000040000fa
:080000000002040000000000f2
:020000040000fa
:10000800ce020000ce020000ce020000ce020000a8
:10001800ce020000ce020000ce020000ce02000098
:10002800ce020000ce020000ce020000d82500005b
:10003800ce020000ce020000ce020000222e0000f8
:10004800ce020000ce020000ce020000a62600006c
:10005800f6260000ce020000ce020000ce0200000c
:10006800ce020000ce020000ce020000ce02000048
:10007800ce020000ce020000ce020000ce02000038
:10008800ce020000ce020000ce020000ce02000028
:10009800ce020000ce020000ce020000ce02000018
:1000a800ce020000ce020000ce020000ce02000008
:1000b800ce020000ce020000ce020000ce020000f8
:1000c800ce020000ce020000ce020000ce020000e8
:1000d800ce020000ce020000ce020000ce020000d8
:1000e800ce020000ce020000ce020000ce020000c8
:1000f800ce020000ce020000ce020000ce020000b8
:10010800ce020000ce020000ce020000ce020000a7
:10011800ce020000ce020000ce020000ce02000097
:10012800ce020000ce020000ce020000ce02000087
:10013800ce020000ce020000ce020000ce02000077
:10014800ce020000ce020000ce020000ce02000067
:10015800ce020000ce020000ce020000ce02000057
:10016800ce020000ce020000ce020000ce02000047
:10017800ce020000ce020000ce020000ce02000037
:10018800ce020000ce020000ce020000ce02000027
:10019800ce020000ce020000ce020000ce02000017
:1001a800ce020000ce020000ce020000ce02000007
:1001b800ce020000ce020000ce020000ce020000f7
:1001c800ce020000ce020000ce020000ce020000e7
:1001d800ce020000ce020000ce020000ce020000d7
:1001e800ce020000ce020000ce020000ce020000c7
:0801f800ce020000ce0200005f
:020000040000fa
:10020800ce020000ce020000ce020000ce020000a6
:10021800ce020000ce020000ce020000ce02000096
:10022800ce020000ce020000ce020000d825000059
:10023800ce020000ce020000ce020000222e0000f6
:10024800ce020000ce020000ce020000a62600006a
:10025800f6260000ce020000ce020000ce0200000a
:10026800ce020000ce020000ce020000ce02000046
:10027800ce020000ce020000ce020000ce02000036
:10028800ce020000ce020000ce020000ce02000026
:10029800ce020000ce020000ce020000ce02000016
:1002a800ce020000ce020000ce020000ce02000006
:1002b800ce020000ce020000ce020000ce020000f6
:1002c800ce020000ce020000ce020000ce020000e6
:1002d800ce020000ce020000ce020000ce020000d6
:1002e800ce020000ce020000ce020000ce020000c6
:1002f800ce020000ce020000ce020000ce020000b6
:10030800ce020000ce020000ce020000ce020000a5
:10031800ce020000ce020000ce020000ce02000095
:10032800ce020000ce020000ce020000ce02000085
:10033800ce020000ce020000ce020000ce02000075
:10034800ce020000ce020000ce020000ce02000065
:10035800ce020000ce020000ce020000ce02000055
:10036800ce020000ce020000ce020000ce02000045
:10037800ce020000ce020000ce020000ce02000035
:10038800ce020000ce020000ce020000ce02000025
:10039800ce020000ce020000ce020000ce02000015
:1003a800ce020000ce020000ce020000ce02000005
:1003b800ce020000ce020000ce020000ce020000f5
:1003c800ce020000ce020000ce020000ce020000e5
:1003d800ce020000ce020000ce020000ce020000d5
:1003e800ce020000ce020000ce020000ce020000c5
:0803f800ce020000ce0200005d
:020000040000fa
:100400000fe021000e7f24000e0188000000000094
:10041000000020000000e000020032000001200087
:10042000200288000c0007006075220001002000f7
:1004300011000700000020000000e0000200320070
:100440000000020000000000c82c020000000000b4
:100450000040da000000fe004440a900c00b20006c
:100460000000e0000300320000002000a00188002e
:100470004440a80000000600910188008000780038
:100480000000eb0015003700e280400032a0b4000d
:100490009101ba00e280400032a0b4009102ba009b
:1004a000e280400032a0b4000002eb00472bde00e7
:1004b000f507b200602ce10004003a000059eb009f
:1004c0008301e900fdff3e00040037006128e100e0
:1004d000010032000082eb00040007001101ba00a5
:1004e0000200e000e8ff3a00000006003159ba00bf
:1004f0008301e9000c0032002159ba008301e900b0
:10050000080032000400e00003003a00e2804000ee
:1005100032a0b400f5ff370011d9ba008301e90019
:10052000faff3a008100e800e180400032a0b40008
:10053000000006009a0f040000000000422304009f
:10054000000000001023040000000000e61e04006c
:10055000000000006e1e04000000000004290400da
:1005600000000000f42804000000000092280400ad
:1005700000000000e82904000000000096290400a3
:1005800000000000002d0400000000003e2c0400cc
:1005900000000000a22b0400000000000040da0070
:1005a0000000fe000a00fa00e20f500022003e00a8
:1005b000f4ef8000e10f5200060032008723200094
:1005c000462320002423200005232000e08f530031
:1005d00004003a0087222000462220002422200026
:1005e00005222000000028001500600003003a00ea
:1005f000800b780007002800958a730005402000d2
:100600009482620001003a0014a0a00082027800e7
:1006100006003700940378000710b200fdff320097
:10062000b103fb00070b78008502e900e08f520060
:10063000f8ff3a000800370034002000c0bf9f00d8
:10064000e2bf9f00b4bf9f00d1bf9f006a805700e8
:10065000420407006fb99700020078000080fa009a
:1006600000000600839f68000100e00002003d00da
:1006700060001000e08018000300e00002003d0070
:1006800060011100e0811900050007004f00e00043
:1006900002003b0060001000e0801800000006002f
:1006a0006022b800060220000000d0008180d20045
:1006b0000482d2008582d2000000a0000202520013
:1006c00083825a00030031000202420083824a0002
:1006d0000000a1000603e900f3ff3a000000060055
:1006e0000002780002003700315a78000201e90068
:1006f000e00f5100fcff3a00000006000c00fa0079
:10070000889fbe00f4ff270000047800d4bf9f003c
:100710008004eb0088bf9f0099bf9f00a8bf9f0087
:10072000240c200078815700b4bf9f00cfb0970001
:1007300070805700070007000fba9700094a780039
:100740000fba9700080052004f04be000080fa0064
:1007500000000600ef03b000889fbe008a9fbe0025
:100760008c9fbe00800678008e1f78000007eb008b
:10077000d1af9f00a2b79f0066033700dfa89700a4
:1007800054c2b3008100e800d1af9f00844f5000f5
:1007900006003a00010278000006eb0001c3b30036
:1007a00000c2b300b7c2b3000e0037003d02900094
:1007b0000404b200040032001d027800004a7800f0
:1007c000840ee800050037000000fb008d00780073
:1007d0005c030700e10f40004e0332000e07e80003
:1007e0004c03370084027800d2c2b300344378004f
:1007f000824f53000900320005003c00804f530037
:1008000008003200874f53000c003a000700370001
:10081000814f530009003a00060037000c30a00059
:10082000f0ff37000c00a000eeff37000c10a00016
:10083000ecff37000c20a000eaff370062026600e0
:10084000010032000c00a1006802660001003200c5
:100850000c20a1000602fb000403b100e90f5200c6
:100860000c003e00050378000002eb00b603fb001d
:100870006a22b9000703b1008602780004824300af
:100880009603fb000703b100e98f5300f7ff360022
:10089000080037000002eb00a7c2b300874f5300e7
:1008a00004003a00afb197008502e80043027800e7
:1008b000a3b79f000003eb0096b79f00e6c2b3000a
:1008c000954f13000c003a000ce0a0006443530065
:1008d000d54f130003003200050378000000eb0041
:1008e00009003700afb397008502e800470478009d
:1008f000a7b79f0098b79f0005037800090037004d
:100900006a00b9000080430086027800b603fb004d
:100910000703b100e98f5300f9ff360090b79f003d
:10092000f5ff3700b6427800cac6b300d6af9f00c5
:100930008acf5200250032000f003c0036c6b300bb
:1009400086cf52009e00320004003c00e0cf5200ef
:10095000f50232006b4353000f00370046c6b30068
:1009600086cf5200170032006543430086cf520005
:10097000b2003a001300370036c7b30086cf5200ea
:100980001f00320007003c006443530086cf520032
:10099000140032000643e80086cf5200a7003a0058
:1009a0001300370056c7b30086cf5200aa003200aa
:1009b0006343430086cf5200a0003a00e5779f00d2
:1009c0000d003700e5779f00a5003700f0036600b3
:1009d0000501200001003200050028000c8672008d
:1009e000d0ff3700e5779f000c60a0009c00370027
:1009f000e5779f000c50a0000c70a0009800370015
:100a0000afb59700e5779f00cb027800abb79f00aa
:100a1000b5b79f00e08f520002003a00a1dc210030
:100a2000b1b79f003fb397008002eb000100370091
:100a30008502e800e6c37a00e0cf5300fcff3a00ed
:100a4000c5b79f001fb19700e00f510005003200ad
:100a5000cfb19700830f510002003100820278006d
:100a6000c5b79f00cfb297000004eb00850f52007e
:100a700001003600050452006806660009c2b30092
:100a80000f003200290037003d0290000404b2003c
:100a9000040032001d027800094a7800840ee80044
:100aa000050037008d00780000022000a502070035
:100ab000e10f4000010032000e07e8000804e900e1
:100ac000e00f5400f0ff3a000084eb0017003700fd
:100ad000bd0290000504b2000900320088027800cf
:100ae0009d03780035437800864b78000504780034
:100af000870ee800e04f53000a003a00110037006b
:100b0000880278008d0078003500fb0084bf9f00cc
:100b1000050478008b0207000fba9700e10f400030
:100b2000080032000e07e800060037000c027800cb
:100b3000080678003fb49700cfb497005fb59700e0
:100b4000efb59700890278008504e900e08f520034
:100b5000dfff3a00b8b79f00c9b79f00dab79f0020
:100b6000ebb79f000c04780009c2b30004067800bc
:100b7000e00f56000f003a00660237003d02900079
:100b80000404b200040032001d027800094a780013
:100b9000840ee800050037008d0078000002200078
:100ba00068020700e10f4000010032000e07e80074
:100bb0000804e900e00f5400f0ff3a005502370046
:100bc000afb097007003660041047800a1b79f00a2
:100bd000cfc4de00090578008a0578000800be0051
:100be0000a01be004800de00c80add000080720075
:100bf000e0779f00e00f530009003200e04f500003
:100c000007003200e14f40000500320026002000be
:100c1000f0779f00887f9f00c6b79f0003003700d2
:100c200017002000c7b79f00f8779f0078fb2f00c0
:100c300008844700b8b79f0082ff370069fb2f0088
:100c40001a00200089844700e5779f00b9b79f000c
:100c5000cab79f007bff3700e5779f000c0cb300fd
:100c60008c027800050cb2003b003a00e00f560001
:100c700005003d00afb297004501be004500be0033
:100c8000a5b79f000f003700f00266001200320087
:100c90002fb497004803be00f69f9f0087a79f00d0
:100ca000a8b79f0098029000cfaade0095a79f00ea
:100cb000a5a79f007f9897008fa097001fa197007e
:100cc000afa19700b0b79f00c1b79f00d2b79f00f8
:100cd000e3b79f000b003700afb09700c102780068
:100ce00005047800cfc4de00090578008a05780085
:100cf000a1b79f00b8b79f00c9b79f00dab79f00a0
:100d0000ebb79f003fb09700cfb097005fb197005f
:100d1000efb19700e00f5000e08f5800e00f59004e
:100d2000e08f590032003d006000b8006011b8004b
:100d30003fb49700cfb497005fb59700efb5970029
:100d40003c00b30008045000898458000a0559008b
:100d50008b85590022003700e00f560005003d004a
:100d6000afb297004501be004500be00a5b79f0089
:100d70000f003700f0026600120032002fb4970017
:100d80008004eb004803be000005eb0096af9f0017
:100d9000a7af9f00b9af9f00caaf9f001fa89700e1
:100da000afa897003fa99700cfa99700a8b79f00c9
:100db000b0b79f00c1b79f00d2b79f00e3b79f00b5
:100dc0000b003700afb09700c1027800a1b79f00b9
:100dd00005047800090020000a0020000b00200014
:100de000b8b79f00c9b79f00dab79f00ebb79f0065
:100df0009fb49700e08f54000d003a001a002000c5
:100e00003fb09700cfb097005fb19700efb1970068
:100e10009ab79f00e00f5000e08f5800e00f590094
:100e2000e08f5900020032008000eb0091b79f0074
:100e30000c01780005042000020cb20082b79f006c
:100e4000850f51003400320003003c00e00f5100d8
:100e50000800320048003700050820008fb19700d5
:100e6000858f510014003200050c2000858f510041
:100e700041003a0006d1210015c0b3003600be0083
:100e80003601be003fb49700cfb497005fb597001e
:100e9000efb597000040e10001c8e10002d0e10099
:100ea00003d8e100330039008542e800f4cf520056
:100eb000f2ff3a002f00370015c0b30000012000f8
:100ec000010020006011b8003fb49700cfb4970034
:100ed0005fb59700efb597000040e10001c8e10061
:100ee00002d0e10003d8e1002200390049002000cf
:100ef0000000d0008180d2000281d2008381d20024
:100f00008904e900faff3a008542e800f0cf520078
:100f1000edff3a001700370015c0b3008000200035
:100f2000010020006011b8003fb49700cfb49700d3
:100f30005fb59700efb597000040e10001c8e10000
:100f400002d0e10003d8e1000a0039003900200096
:100f50000000d0008180d2000281d2008381d200c3
:100f60008904e900faff3a008542e800f5cf520013
:100f7000edff3a00e5779f006f7597009fb59700ea
:100f80008a02fb008b8f520002003d00eb779f002e
:100f9000040037001fb09700850f500001003d008e
:100fa00095b79f00e00f520003003200e302660095
:100fb000010032000402e9000500240085026600f9
:100fc000060032009fb09700810f520002003400eb
:100fd00001025200010037000002eb006f71970020
:100fe0008001eb008202fb00f3af9f00850f5200ef
:100ff0000200340085025200f5af9f0064026600d3
:101000003b003200e202660061026600e08f52009f
:1010100011003200bd0290000504b2000800320049
:101020009d027800b6c2b300e00f5200010032000a
:1010300006c3e800864a7800850ee80015003700f0
:10104000b0022000e00f5200010032000080e800f2
:101050008d0078000c003700e00f52000e003200c7
:101060003d0290000404b200050032001d02780029
:1010700005c2b300054a7800840ee8000500370079
:101080008d007800000220002e010700e10f4000d3
:10109000010032000e07e8007faa9700e00f52001f
:1010a0004f00320008c3b300840478003d02900072
:1010b0000404b200040032001d027800084a7800df
:1010c000840ee800050037008d0078000003200042
:1010d0001c010700e10f4000010032000e07e8008c
:1010e0008904e900f1ff3a00f9af9f003c003700a6
:1010f000ffaa9700e08f52001400320068026600d9
:1011000012003a0008c2b300850478003d02900046
:101110000404b200040032001d027800084a78007e
:10112000840ee800050037008d00780000022000e2
:1011300004010700e10f4000010032000e07e80043
:101140008904e900f1ff3a00f9af9f00e20266006e
:1011500061026600e08f520011003200bd02900073
:101160000504b200080032009d027800b6c2b30048
:10117000e00f52000100320006c3e800864a780002
:10118000850ee80015003700b0022000e00f520085
:10119000010032000080e8008d0078000c0037006c
:1011a000e00f52000e0032003d0290000404b20035
:1011b000050032001d02780005c2b300054a780020
:1011c000840ee800050037008d0078000002200042
:1011d000dc000700e10f4000010032000e07e800cc
:1011e0001fb3970085d021000602e900f0046600d5
:1011f000c223dd000c057800c7a79f000a02b200d9
:101200006323b900e99f9f00060478004322dd00b4
:10121000b8a79f0085024200da9f9f00e5af9f00bc
:10122000a30037009fb597000fb097008b05e9002a
:10123000010420009bb79f00810f50007300320013
:1012400003003c00e00f5000080032007e00370031
:10125000040820000fb19700840f5100560032009f
:10126000040c2000840f510077003a00e00f560074
:101270001f003d00efa997003304be002305be0008
:101280003fb09700cfb097005fb19700efb19700e4
:101290000802be000a03be00e30107000802be0008
:1012a0000a03be00e0779f000000fb00cf80de0055
:1012b0000101780082017800440207003fb29700e4
:1012c000cfb297005fb39700efb3970000025200d0
:1012d00081825a0002035b0083835b00b4b79f00e6
:1012e000c5b79f00d6b79f00e7b79f002e00370015
:1012f000ef9a9700e08f5200220032006fab970008
:101300003fb29700cfb297003604be002605be005c
:101310000400be000801be0084bf9f00f5b79f0017
:101320000005eb00defc07000801be00e0779f002f
:101330000000fb00cf80de000a0107000fba970013
:10134000ffb297008aaf9f000004520081845a00c8
:10135000d8a79f00e9a79f008004eb00f9a79f0092
:101360005fa09700efa097007fa197008fa997003b
:10137000b0b79f00c1b79f00d2b79f00e3b79f00ef
:1013800009003700efa897003fb1970011027800dd
:10139000110009000481d800a400200011000900f8
:1013a0000480d800e1779f00ef7197000343b000fd
:1013b000e3779f002400370094db2100df9a970039
:1013c000e08f52000100320084da21003fb0970024
:1013d000cfb097005fb19700efb197004fa3970090
:1013e0000603e900050033008301d1000281d30028
:1013f0008180d3000080d300f9ff37006f006000c8
:1014000064407800e0779f000f0037003fb29700fc
:10141000cfb297005fb39700efb397003fa4970058
:101420000804e900050033008703d1000683d300d8
:101430008582d3000482d300f9ff3700674262003f
:101440000443b000e4779f003d0290000404b20022
:10145000070032009d0278006f729700844a78007e
:10146000850ee800e04f520007003a000700370001
:10147000ef7497008d0078000900fb003100070031
:10148000e10f4000010032000e07e8004fa5970071
:10149000bfa597006fa8970064055500e385550028
:1014a00068005000caa79f00bba79f00e0af9f0045
:1014b0009fb09700e08f50005aff3a006806660020
:1014c000140032007fa99700e00f51001100340092
:1014d00008c2b300820478003d0290000404b20008
:1014e000040032001d027800084a7800840ee800eb
:1014f000050037008d007800000220001100070071
:10150000e10f4000010032000e07e8008904e90005
:10151000f1ff3a00dfa9970013407800e0779f00c1
:10152000e04f500095fc3a000e0078004f0778001d
:101530004f06be004f05be004f04be00ef03b100d2
:1015400000000600889fbe00010478008084eb0044
:1015500038029000e20262003b003200040378008f
:10156000980290000620b20002003a00e08f52007c
:1015700035003a000490a0008004780034049800fc
:10158000f90fb200e08f520002003a00a80290006a
:10159000050c7800ea8f540005003a000408b200f8
:1015a00003003a0088007800d0002000e5ff070023
:1015b00018029000d8029000850f52000b003200f4
:1015c0000402e80015c0b300140498001802780063
:1015d000094a7800040ce80084df2100054a7800fd
:1015e000ea8f540018003a000500370009407800df
:1015f0008800780017000700800478001200370088
:10160000380290000410b2000f0032001801900060
:10161000a800900048009000e2fb0700180290002c
:10162000840f500004003200380290000403b3001d
:10163000340498008084eb000002eb00140498004e
:1016400028029000040c7800090078004f04be00c6
:10165000000006000200fa00889fbe000104780026
:10166000a0ff9f0038029000840278000504b200b9
:10167000020032000000fb0035003700e202620089
:1016800005003a000403b3001504980034049800e0
:101690000080eb002e003700d8049000e08f54004b
:1016a00006003a0012002000e68057004800900033
:1016b000bcfb07001904980023003700a802900023
:1016c000e08f520008003a00c5df21000430a0007e
:1016d00025049800050c78003404980025002000ab
:1016e000550498001504980018019000a800900077
:1016f00048009000abfb0700280290008082eb00be
:1017000015049800affa9700054a7800040ce80029
:101710002ffa9700ea4f52000b003a00380290006f
:101720000410b2000800320018019000a8009000d8
:10173000480090009bfb07000002eb00a80290000d
:1017400014049800050c78002ffa97000400fb00a1
:101750004f04be000080fa000000060000c0da005e
:1017600000000600020ab900001bb9000200b80020
:10177000810042008100430000000600889fbe00f7
:101780008a9fbe003004be002005be000404440051
:1017900085844c0006054d0087854d000898be00e5
:1017a0000a90be000440e10005c8e10006d0e10057
:1017b00007d8e10002003100680040001008e8008e
:1017c0004f05be004f04be00000006001000fa00e6
:1017d000889fbe008a9fbe00110020000605be0043
:1017e0000404be003002be002003be00c4b79f0048
:1017f000d5b79f00e6b79f00f7b79f0008025200d9
:1018000089825a000a035b008b835b0084bf9f00c0
:1018100095bf9f00a6bf9f00b7bf9f000498be0062
:101820000698be004fb29700dfb297006fb39700e3
:10183000ffb397000820e10009a8e1000ab0e10029
:101840000bb8e100010039008000eb004f05be003d
:10185000108810004f04be000080fa00000006004f
:101860001400fa00889fbe008a9fbe008c9fbe00b5
:101870000006eb003e000700ccb79f00bcb79f00fe
:10188000acb79f009cb79f008cb79f000605be00b9
:101890000404be000d0420004fb39700bfb29700b0
:1018a000860343002fb29700e00f530004003d0071
:1018b0003d0007000f004000b0ff070003003700a5
:1018c000390007000f004000c0ff0700cfb29700ab
:1018d00095bf9f00e08f5200090035002b000700e4
:1018e00014002000050020006033b80000007200e2
:1018f0008180720002017300838173001c00070065
:101900000c06e8008d0f5600e3ff3a001fba97005f
:10191000e00f520005003d000802be000a03be00b1
:1019200000fe2f000f00400094ff07004faa970011
:10193000e00f520008003a000fb497009fb49700e0
:101940002fb59700bfb59700d8b79f00e9b79f00a4
:10195000fab79f008bbf9f000c0007004f06be0028
:101960004f05be004f04be000080fa0000000600d4
:10197000010007000000060090b79f00a1b79f007c
:10198000b2b79f00c3b79f00000006000100070028
:10199000000006001fb09700afb097003fb197005e
:1019a000cfb19700000006004f2bde00f9ff0700c3
:1019b00086837300858242004f23de00a7b79f0015
:1019c000868272000402420095b79f00ffaa97002a
:1019d0004f2bde00858242000602720084b79f0012
:1019e0006faa97004f23de00040242008682720035
:1019f000f5af9f004f18de0000027200e5ff070000
:101a0000e4af9f00000040008180480002014900cf
:101a1000838149000802be000a03be00d6ff07000a
:101a200000fe2f0000000600881f7800180020002c
:101a3000881f78008aff07008f87e9004f0478002d
:101a400000000600801feb0085ff07008f87e9007c
:101a500000000600889fbe008a9fbe00e00f500075
:101a6000e08f5800e00f5900e08f59000c003d0056
:101a70006044b8006055b8000000540081805c00ec
:101a800002015d0083815d00180020001500070041
:101a900008003d00180007000004eb0005003700b7
:101aa0000004eb000f00070002003d0012000700d9
:101ab00018002000dcff0700e00f54000600320091
:101ac0006022b8006033b8000000520081805a00e4
:101ad00002015b0083815b004f05be004f04be0026
:101ae00000000600e00f5200e08f5a00e00f5b009c
:101af000e08f5b00000006006044b8006055b8004d
:101b00000402540085825c0006035d0087835d004b
:101b100000000600889fbe008a9fbe008c1f7800d0
:101b2000e00f5000e08f5800e00f5900e08f59009f
:101b30000d003d006044b8006055b8001c00200056
:101b40000000540081805c0002015d0083815d0023
:101b50000820e10009a8e1000ab0e1000bb8e100ab
:101b60000d003d00080037000006eb00e00f5200ba
:101b7000e08f5a00e00f5b00e08f5b0006003d0045
:101b80006044b8006055b8000402540085825c00cf
:101b900006035d0087835d00aaff0700e00f560083
:101ba000060032006022b8006033b8000000520026
:101bb00081805a0002015b0083815b004f06780040
:101bc0004f05be004f04be0000000600889fbe0007
:101bd0008a9fbe008c1f78000006eb00e00f5000cb
:101be000e08f5800e00f5900e08f590007003d00da
:101bf0006044b8006055b8001c002000000054008c
:101c000081805c0002015d0083815d00e00f520075
:101c1000e08f5a00e00f5b00e08f5b0007003d00a3
:101c20006044b8006055b8000c00a20004025400e3
:101c300085825c0006035d0087835d000c00070061
:101c4000e00f5600060032006022b8006033b80092
:101c50000000520081805a0002015b0083815b001a
:101c60004f0678004f05be004f04be00000006007e
:101c7000889fbe008a9fbe008c9fbe000404b800ef
:101c80000506b8008904460060854e000606b800c7
:101c90000a054600e0854e000706b8008b054600a1
:101ca000040eb800890446000a854e00e0854d0008
:101cb000050eb8000a0546008b854e00060eb800da
:101cc0008b0546000416b8000a0546008b854e00b9
:101cd0000516b8008b054600041eb8008b054600ab
:101ce0000800be000a01be004f06be004f05be0040
:081cf0004f04be0000000600d5
:020000040000fa
:101cf80046410000494c000020230000310000004c
:101d080046410000494c000020230000320000003a
:101d180046410000494c0000202300003300000029
:101d280046410000494c0000202300003400000018
:101d3800256400006e730000206d000061780000cb
:101d4800206a0000697400007465000072000000d9
:101d580043680000656300006b0000005143000009
:101d68006f6e000073420000310000005150000007
:101d7800726f00006442000032000000514300000e
:101d88006f6e0000734200003300000051500000e5
:101d9800726f0000644200003400000051500000df
:101da800726f0000644200003500000051430000db
:101db8006f6e000073420000360000007777000065
:101dc800772e00004672000065650000525400003e
:101dd8004f5300002e6f000072670000004c000097
:101de8004344000000000000434f00004d54000031
:101df80078000000434f00004d5400007832000086
:101e0800004300004f4d0000527800000000000021
:101e180096000000c8000000fa0000002c01000035
:101e28005e01000090010000c2010000f401000002
:101e38004254000065730000743100000042000045
:101e4800546500007374000032000000496e000001
:101e5800744d0000617400006800000049440000ef
:081e68004c45000000000000e1
:020000040000fa
:101e700000027800540390000000eb00c5c321006d
:101e8000850f530008003a00240a900025c3210062
:101e9000850f52000400320004f0a7000402ea009b
:101ea0000400e9004f00de000000060054e280005c
:101eb0008002eb00948f120002003a00fabcef009f
:101ec0000000060054e280003402900034029000ca
:101ed00014029000d4e7880000000600881f7800f4
:101ee0000004780024e080001802980034e28000aa
:101ef000840f54000500310021e0800040e28000a2
:101f00008180e800160f07000800370021e08000fc
:101f100050e280008180e800110f0700d4e78000c4
:101f2000840f540001003100d8e788004f04780086
:101f30000000060054e08000e10f5200030036006c
:101f4000a22402000000000000000000ab0e070009
:101f5000f8ff3700e4874700889fbe008a9fbe00d5
:101f60008c9fbe008e1f780080bf9f008104780088
:101f700002067800030778000405780085067800db
:101f80008605780060022000460f070000047800f4
:101f90000080eb00e00f540070003200e08f55002d
:101fa00074003a000c0046003e0f0700400c9800f9
:101fb000e00f500070003a0008007800550f07004d
:101fc0000080eb0065003700596a78000043eb00a1
:101fd000994f130002003200858f5400faff3a0037
:101fe0000042eb00545c98008a047800e30f55002f
:101ff0000100360039002000390c98000886e800fe
:102000000c007800c90e07006c004400c70e0700e2
:1020100048049800e484140069049800180c98009f
:102020006022b80004149800151498000002eb0018
:10203000241498000e0178008fb897000b007800e8
:10204000860a0700000c7800e08f5600010032007d
:10205000880e7800c60a0700523cec0024e080009d
:10206000e00f520019003a0028e0880094e2800056
:10207000e10f52001d003a008004eb00abc02100cc
:102080006a48b90000804500a00e07008904e800f6
:10209000e48f5400faff3a0080c521009b0e070030
:1020a00020c62100990e070020c32100970e0700cb
:1020b000c0c32100950e070084c5210054e28800aa
:1020c00024c6210044e2880008003700a4e2800012
:1020d000e00f520005003a0024e08000340a90002e
:1020e000840f55000100390028e08800563cec00c0
:1020f00018027800f80a900006fe2f00068a4200b7
:10210000048ce8003808900044e08000840f500000
:102110000100360040e088006a00b900a4c0210038
:10212000000042008c007800830e0700980a070028
:10213000a4e2800010002000e00f520007003200ef
:1021400024e08000340a9000840f5500030036001c
:10215000a224020000000000000000004f077800e9
:102160004f06be004f05be004f04be004f00b10039
:10217000000006004b0c9800c80d90000c06e9000a
:102180000c0646000c8645007c0c9800194278002d
:10219000245c98000043eb00994f130090ff32003d
:1021a0007a024400e382440087ff3700889fbe0024
:1021b0008a1f78000004be00e38f5400010036003f
:1021c000390020006a0a0700e00f540001003a00bd
:1021d00028e08000380a9000890f52003000320059
:1021e0000b00310025e080000005eb00850f540056
:1021f0000d00320025e080001a002000b50a900092
:10220000898f5200080036000005eb0006003700f9
:1022100025e0800008856a000af0a7000a05ea00a8
:102220000a05e9004f55de00390c9800e8029000dd
:10223000e08f520002003500e48414006904980025
:102240006a22b900a6c0210004024300d80290000f
:10225000848f52000d003a008884e800090078005d
:10226000520e07003808900044e08000840f5000b0
:102270000100360040e088006a00b900a4c02100d7
:1022800000004200890078002b0e0700e10f550086
:1022900003003a00a2240200000000000000000039
:1022a0003b0a07004f0578004f04be0000000600ff
:1022b000889fbe0000047800e00f54001e0032002a
:1022c00024e08000840f54001b003200280a07001d
:1022d00008007800e6fe0700e10f500015003a0004
:1022e0008884e80009007800300e07003808900064
:1022f00044e08000840f50000100360040e0880078
:102300006a00b900a4c021000000420089007800e2
:10231000090e070024e08000b80a9000340a9000fb
:10232000848f520003003900a22402000000000044
:1023300000000000160a07004f04be00000006005f
:10234000889fbe008a1f780000047800080078008b
:10235000c7fe07008004eb00e10f50001c003a00ac
:1023600034e08000890f520015003a0024e080001c
:1023700019002000b80a9000340a9000848f52009f
:10238000010031008004eb000885e8000a007800b5
:10239000060e07003808900044e08000840f5000cb
:1023a0000100360040e088006a00b900a4c02100a6
:1023b000000042008a007800df0d070004003700ab
:1023c000ec00440020c32100db0d07008004eb007b
:1023d000090078004f0578004f04be000000060099
:1023e0006033b80086027800060278008601780023
:1023f0009206200021f32800a0f92000d5fe070056
:10240000e10f50000a003a00140280000450a000be
:102410000460a1000470a100140288000000000004
:1024200014002000a4e28800463cef00cd0907001c
:1024300000000600140280000450a0000460a10007
:102440000470a1001402880000000000543cef005a
:10245000b3093700063cec0000000600881f780036
:10246000c309070038e28000c909070008007800a6
:102470004f0478000000060030e2800000000600f3
:1024800090e2800000000600889fbe008a9fbe0088
:102490008c9fbe0034e08000e00f52003f003a0005
:1024a000463cec003be28000e08f550006003a001d
:1024b00054e28000481cf8004a1cf90044e28800fd
:1024c0004e3cec0079fe0700d4e780000005eb00ed
:1024d000acc021001d002000848f55000200310097
:1024e000260037000d05780054e280008002eb00e2
:1024f000948f120002003a00fabcef001f00370070
:1025000054e28000340290003404900018029000dd
:10251000848f550002003100d4e78800170037008f
:102520008884e80009007800a00d0700280a9000c0
:10253000e00f5200020032006c0044009b0d0700c7
:102540003808900044e08000840f500001003600fd
:1025500040e088006a00b900000046008900780069
:10256000750d070024e08000b80a9000340a90003e
:10257000848f5200dbff3100dbff370024e0800056
:10258000340a90006a22b900a6c0210066027a00cf
:10259000e10f520004003e0004003700503cec0004
:1025a0000005eb00010037001a00200064e2800003
:1025b000e00f5200010032001a0020000a007800eb
:1025c0004f06be004f05be004f04be0000000600cf
:1025d000889fbe008a9fbe0065090700063ced008b
:1025e00034e080000004eb00880f520036003a000f
:1025f00094e28000aac021001b002000880f520036
:1026000017003a0030003700c4e180003404900025
:102610006c004400650d07008884e800090078001c
:10262000620d07003808900044e08000840f5000dd
:102630000100360040e088006a00b9000000450053
:10264000890078003c0d070024e08000b80a900063
:10265000340a9000848f5200010039006be2880038
:1026600094e18000e00f5200e7ff3a0084e280002e
:10267000e00f52000c00320084e28000e00f5200b4
:1026800009003200180020007fff0700e00f500013
:102690000100320068e28800503ced0084e28000d6
:1026a000e00f5200f8ff3a0064e280000004eb0003
:1026b000e10f520004003a00a224020000000000d2
:1026c0000000000018002000310907000800780011
:1026d0004f05be004f04be0000000600889fbe00ec
:1026e00000047800e00f54000900320059ff070091
:1026f00039e28000049cec002c0d07000900440026
:10270000f6fd0700b2ff0700e00f500003003a009b
:10271000a224020000000000000000004f04be00e0
:1027200000000600889fbe00800478000104780045
:1027300048ff070035e280001902780004044400d5
:10274000848f520006003100880f520016003600b8
:10275000880c7800888f52000a003100050037008d
:10276000880f52000e003e00888f52000c00390086
:102770000d003700049cec000c0d070008007800e9
:10278000d6fd070092ff0700e00f500008003a0056
:10279000a224020000000000000000000400370036
:1027a000880c7800f3ff3700880c7800f5ff3700bd
:1027b0004f04be000000060034e08000e00f52002d
:1027c000030032001400200064e2880000000600cc
:1027d0004c3cef0044e080006a22b900a6c0210012
:1027e00066027a00e00f520007003a00083ced0054
:1027f00044e080006a22b900a6c0210066027a0087
:10280000e00f5200f9ff320045e080006a2bb9006a
:10281000060278000483e800a7c0210067037b005c
:10282000160390000780e80006307a006402420038
:1028300087034200870f530004003a006a28b9005a
:10284000c4c0210016039000063278006a2ab9003d
:102850008482e800a4c0210064827a0034029000df
:1028600024e0880000000600889fbe000004780075
:10287000bf080700e00f540001003a0028e0800084
:102880008884e80009007800c80c0700280a900036
:10289000e00f5200020032006c004400c30c07003d
:1028a00089007800c0c32100a30c0700b808070006
:1028b00024e08000840f54000f003a00a4e280005e
:1028c000e00f520004003200a224020000000000c9
:1028d000000000000e00370094e28000e5e1800077
:1028e000848f520002003a00043cef0008003700d9
:1028f000b1ff070006003700a4e28000e00f52009d
:10290000030032009a08070068fd0700a0080700ce
:102910004f04be0000000600881f78000104780004
:1029200021e08000ec8040008d0c0700049cec004e
:102930009e0c0700e10f440005003a0021e08000f2
:102940008180e800c0c321007b0c07000300370032
:1029500030e280000000440060fd07004f04780072
:1029600000000600881f78000204780024e0800040
:1029700005002800818072006102980021e080003b
:10298000ec8040006c0c0700049cec00870c0700f6
:10299000e10f440005003a0021e080008180e8005a
:1029a000c0c32100640c07000300370030e2800040
:1029b0000000440049fd07004f04780000000600b5
:1029c000889fbe003002900034049000ec04440064
:1029d00009007800750c070034e08000e00f520019
:1029e0000e003a008884e800090078006f0c0700a8
:1029f0003808900044e08000840f50000100360049
:102a000040e088006a00b900a4c021000000420034
:102a100089007800480c070003003700890078001f
:102a200020c32100440c070024e08000b80a900075
:102a3000340a90000000eb00848f52000200360040
:102a40001000200060e288004f04be000000060075
:102a5000889fbe00040028000488700030049000a5
:102a6000520c07008884e800090078004f0c07002a
:102a70003808900044e08000840f500001003600c8
:102a800040e088006a00b900a4c0210000004200b4
:102a900089007800280c070024e08000b80a900024
:102aa000340a90000000eb00848f520002003600d0
:102ab0001000200060e288004f04be000000060005
:102ac00074e280000408780034e28000140098006a
:102ad00000000600889fbe008a1f780080047800ee
:102ae000010578002208070035e280001a0278000c
:102af0000004eb00e10f42001100320076e280009a
:102b0000990f1300040032001903900018002000f0
:102b1000868f52000a00310019039000868352000c
:102b200018002000870f5200050036008502530070
:102b3000048d420009007800e1ff07000004eb006b
:102b400013080700080078004f0578004f04be0006
:102b5000000006001400200064e288000000060067
:102b600024e080006400900024e0800025e08000e4
:102b7000b50a9000e4821200650298000000060089
:102b8000889fbe008a1f7800000578000104780045
:102b9000f707070024e080009412900004129000d0
:102ba000e00f5200e08f5a0014003a0024e0800049
:102bb0001500200025129800e00f54000f0032008d
:102bc000049cec00f90b0700e10f440005003a00fb
:102bd00021e080008180e800c0c32100d60b0700ff
:102be0000300370030e2800000004400bbfc070017
:102bf000a22402000000000000000000e40707001b
:102c0000db07070024e08000041490009414900077
:102c1000e00f5400e08f5c000e003200e00f550022
:102c20000500320024e080006033b80006129800ee
:102c3000171298000700370024e08000041390006a
:102c40009413900061035300e0835b000612980028
:102c50001712980024e080008002eb0025129800f3
:102c6000cb0707000800be004f0578004f04be00e8
:102c700000000600889fbe008a9fbe008c9fbe0099
:102c80000004be000205be000406be00b80707002f
:102c900024e0800024129000e20f52002300320052
:102ca00020e0800000129000901290000884ea005a
:102cb0008984ea008800620009836200070020001e
:102cc000c032dd0004002000610bb8000602720073
:102cd00087827200041098001510980024e080008c
:102ce0001500200025129800e08f56000f003200da
:102cf000049cec00ad0b0700e18f460005003a0094
:102d000021e080008180e800c0c321008a0b070019
:102d10000300370030e28000008046006ffc0700af
:102d2000a224020000000000000000009807070035
:102d30008f070700e00f56000400320024e08000f7
:102d40000413900094139000068ebe0024e08000cf
:102d5000241290000004eb00e10f5200100032003a
:102d600020e0800000129000901290000a85ea0096
:102d70008b85ea008a0062000b8362000700200056
:102d8000c032dd0004002000610bb80006027200b2
:102d90008782720004109800151098001800200017
:102da00024e080008002eb002512980078070700dd
:102db000080078004f06be004f05be004f04be005d
:102dc00000000600889fbe008a9fbe008c9fbe0048
:102dd0000205be0001067800040478008004780033
:102de00063070700e00f540003003200091290004f
:102df00099129000048cbe0029129000250020003a
:102e0000a51498000083eb008083eb000c064300c0
:102e1000e0864b00e30f5600e08f5e001b003e0093
:102e20000c60010003003700090037000f00370075
:102e300011003700091390009913900006057500e2
:102e4000878575008a1498009b1498000f0037003e
:102e5000091390009913900061034300e0834b0035
:102e60008614980097149800080037008a14980078
:102e70009b149800050037000004eb00e20f52009d
:102e80001b0032008a1498009b1498001800200040
:102e9000880f520016003a000984e8000800780004
:102ea000420b07003908900044e08000840f500076
:102eb0000100360040e088006a00b900a4c021008b
:102ec00000004200880078001b0b070024e080000f
:102ed000b90a9000340a900018002000848f520034
:102ee00003003600a22402000000000000000000e1
:102ef00027070700080078004f06be004f05be00f8
:102f00004f04be0000000600889fbe008a1f7800a4
:102f10008404780000047800281390002400200026
:102f2000241498000082eb008082eb000102420032
:102f3000e0824a00e30f5200e08f5a001b003e007f
:102f40000460010003003700090037000f0037005c
:102f500011003700081290009812900004017100cf
:102f60008581710002149800131498000f00370037
:102f7000081290009812900061024200e0824a001c
:102f800004149800151498000800370002149800e3
:102f900013149800050037000000eb00e20f530007
:102fa0002200320002149800131498001000200030
:102fb000800f53001d003a0034e08000e00f520003
:102fc0000e003a000885e8000a007800f70a0700ba
:102fd0003808900044e08000840f50000100360063
:102fe00040e088006a00b900a4c02100000042004f
:102ff0008a007800d00a070003003700ec00440084
:1030000020c32100cc0a070024e08000b80a900009
:10301000340a900010002000848f52000300360014
:10302000e08f540001003200800c78004f057800da
:103030004f04be0000000600889fbe008a1f780073
:103040000004be00281290002500200025149800de
:10305000081390009813900061034300e0834b0035
:103060000614980017149800e10f52001d003a0052
:1030700034e08000e00f52000e003a0005054400e5
:103080000a007800c90a07003808900044e0800070
:10309000840f50000100360040e088006a00b9004b
:1030a000a4c02100000042008a007800a20a0700a4
:1030b00003003700ec00440020c321009e0a0700f3
:1030c00024e08000b80a9000340a9000848f5200f7
:1030d00004003600e08f540002003200140020008b
:1030e000840c78004f0578004f04be0000000600f5
:1030f000889fbe00000478008204780008119000c8
:10310000e00f510022003200e08f54000c003a0022
:103110002800900072f50700a802900008129000a5
:10312000048242002404980098029000850f520007
:1031300017003900180278002404980014003700a2
:103140003800900066f50700881290008502ea00ba
:10315000380290000502420034049800980f520093
:1031600003003100180290008502420035049800e7
:10317000e28f540006003a00680a9000e00f520007
:1031800003003200680a90000402e900640c980011
:10319000680a90000402e800640c98000000eb004c
:1031a0004f04be00000006000102780000119000ec
:1031b000e00f51000b003200b0029000828242000a
:1031c0003500980010039000868f520002003900ed
:1031d0009002780035009800b0009000040078005c
:1031e0003ff5070000000600881f78000004780003
:1031f0005f060700e80a9000780a900004846a00dd
:1032000008f0a7000804ea000804e9004f44de00c3
:103210005f060700080078004f04780000000600f1
:10322000889fbe0000047800510607002812900015
:10323000e00f520014003400180a9000e00f520012
:1032400005003a0010003700180a9000e00f520005
:1032500002003a000c003700f20444000900780034
:10326000d7fd0700e00f50000100320039fe0700d3
:10327000281290000402e9002414980028129000fb
:10328000e00f5200f0ff3c000082eb002414980095
:103290003f0607003606070018129000e00f5200a4
:1032a0001400340048029000e00f520005003a007c
:1032b0001000370048029000e00f520002003a0070
:1032c0000c003700e804440009007800bcfd07004a
:1032d000e00f5000010032001efe0700181290009f
:1032e0000402e9001414980018129000e00f520034
:1032f000f0ff3c000082eb00141498002406070045
:103300004f04be0000000600889fbe000004be00ff
:103310001706070018027800780b900088129000ba
:1033200006a8b90080034200170498008003eb0050
:10333000670c9800240498000603e90005b3b9005f
:1033400006024200340498000082eb001414980036
:1033500024149800e08f54000b003a0048029000bb
:10336000e00f52000c0032006800440094fd07009a
:10337000e10f500008003a00a22402000000000003
:10338000000000000400370068004400df09070067
:1033900072004400dd090700fd0507001000200051
:1033a0004f04be0000000600889fbe008a1f780000
:1033b00000057800810478000000eb00808f540045
:1033c000020032000ac8b9000000e8006002b00044
:1033d000340a07000004eb00880f50000c00320094
:1033e00000047800e08f540002003a00000c7800de
:1033f0000200370064022000040840007a0c9800a4
:10340000091498001100200008007800beff070092
:10341000080078004f0578004f04be000000060049
:103420000600fa00889fbe008a9fbe008c1f7800ad
:1034300001067800a2bf9f00030578000004780011
:103440008004eb00e8054400c9050700e80a900085
:10345000780a9000848f520002003900e20f550074
:1034600017003a000a0178008c0078000800780004
:103470001fff0700180a9000e00f520008003200fa
:10348000720044004efd0700e10f500009003a00b1
:10349000a224020000000000000000000500370028
:1034a000e00f500003003200a224020000000000e0
:1034b00000000000b60507001000200036003700ad
:1034c0002fba9700e00f520003003a00b005070042
:1034d0000000eb0030003700e08f540003003a009a
:1034e0007080570076fd070019002000a80507002e
:1034f000d8fb07009e05070018129000e10f42005c
:1035000002003a000002eb00141498002812900008
:10351000e10f420002003a000002eb002414980080
:103520009b050700ec8057007080570069fd07007d
:10353000e00f500014003a00080078002aff07004e
:10354000e00f50000c003200afb897000b0078007d
:10355000f1fc07000800780031ff07001cfc0700a1
:10356000e00f5000b8ff3a00a22402000000000063
:1035700000000000b4ff37000800780028ff0700b3
:1035800013fc0700b0ff37000800780024ff070095
:103590000ffc07000000eb004f0678004f05be004f
:1035a0004f04be000080fa0000000600889fbe00a5
:1035b0008204780000047800e80a9000780a9000fd
:1035c000848f5200030039000000eb00e28f5100ad
:1035d00018003a000301780008007800c4fe0700d4
:1035e00028129000e10f42000e003a00180a9000e5
:1035f00010002000e00f52000e0032007200440064
:10360000effc07000002780010002000e00f5200dd
:1036100008003200e08f540006003200800c780071
:1036200004003700281290000402e80024149800d7
:10363000100020004f04be0000000600881f780024
:1036400001047800600b9000f00a90000002eb008b
:10365000850f530017003100600a90000402e80053
:103660006408980020129000e10f42000d003a001b
:10367000900a900014002000e08f52000d003200ec
:1036800072004000cefc070014002000e00f500044
:1036900008003200e00f540006003200040c7800ed
:1036a00004003700201290000402e8002410980063
:1036b00014002000040078004f0478000000060089
:1036c0000600fa00889fbe008a9fbe008c9fbe0045
:1036d0000106780092bf9f0083067800800478007e
:1036e0000005eb00f285440021050700690a9000ff
:1036f000e00f520022003200390490008c00780064
:1037000009007800a8fe0700e08f56000e003a007e
:10371000690a90000402e900e40c98004902900054
:10372000e00f52001300320068804400a4fc070040
:10373000e10f50000f003a00a22402000000000038
:10374000000000000b003700b8049800190a900030
:10375000e00f5200070032007280440098fc07001e
:10376000e00f500003003200a2240200000000001d
:103770000000000006050700100020003700370099
:103780001fba9700e00f520003003a00000507003f
:103790000000eb0031003700e00f550003003a0055
:1037a00072805700c6fc07001a002000f8040700ca
:1037b00028fb0700ee04070019129000e10f4200f9
:1037c00002003a000002eb009414980029129000c5
:1037d000e10f420002003a000002eb00a41498003e
:1037e000eb040700ee80570072805700b9fc070019
:1037f000e00f500015003a00dd040700690c90004e
:10380000e3040700e00f54000c003a009fb8970053
:103810000b00780040fc07000900780080fe0700dc
:103820006bfb0700e00f5000afff3a00a22402003c
:103830000000000000000000abff37000900780026
:1038400077fe070062fb0700a7ff3700090078003a
:1038500073fe07005efb07000000eb004f06be0092
:103860004f05be004f04be000080fa0000000600b5
:10387000889fbe008204780000047800680a9000e7
:103880000000eb00800f52001a00320008007800a0
:1038900045fe0700680a90000402e900640c9800e5
:1038a00018129000e10f42000e003a00480290000a
:1038b00010002000e00f52000e00320068004400ab
:1038c0003ffc07000002780010002000e00f5200cb
:1038d00008003200e08f540006003200800c7800af
:1038e00004003700181290000402e8001414980035
:1038f000100020004f04be0000000600889fbe009c
:1039000000047800680a90000000eb00800f52006d
:1039100005003200b80490000800780022fe07007d
:1039200039049800100020004f04be00000006007b
:10393000881f7800000478008d040700680c900050
:1039400093040700080078004f0478000000060088
:10395000889fbe008004780085040700690a9000f3
:10396000790c9000040454008904070008007800d2
:103970004f04be0000000600600890000000060032
:10398000e40837006008900000f0a7000000ea009b
:103990000000e9004f00de0000000600e00a900091
:1039a000700a900004806a0000f0a7000000ea009e
:1039b0000000e9004f00de0000000600889fbe0006
:1039c0008a1f7800010578008204780000047800de
:1039d000140280000450a0000460a1000470a10043
:1039e000140288000000000008007800fefd0700b7
:1039f000e00f50000f003200e08f5400080032004a
:103a0000e80044000900780040020700f4f12f00ac
:103a100025042000950a6200c0ff2f002500370012
:103a2000f4f12f0025042000950a62000000eb004d
:103a300020003700f4f12f0025042000950a6200d1
:103a4000140280000450a0000460a1000470a100d2
:103a50001402880000000000e80a9000780a900034
:103a60000000eb00848f52000f0031000001eb00da
:103a70008a007800080078009dfd0700180a900071
:103a800010002000e00f52000700320072004400d6
:103a9000d102070000027800b0ff2f00e00f5200b3
:103aa00001003a0010002000f4f12f00250420004e
:103ab000950a62004f0578004f04be000000060022
:103ac000881f780001027800000478001502800049
:103ad0000550a0000560a1000570a1001502880036
:103ae00000000000e80a9000e08f52000f003a004a
:103af000e00f510008003200f2004400020078009c
:103b000002020700f4f12f0025042000950a62004c
:103b1000c0ff2f002f003700f4f12f0026042000f3
:103b2000160b62000000eb002a003700f5f12f00b1
:103b300026042000168b6200150280000550a000ac
:103b40000560a1000570a1001502880000000000ba
:103b5000e80a90000000eb00808f52001a0032004b
:103b600008119000b802900082824200350498004b
:103b700018039000868f52000200390098027800e6
:103b800035049800e80a90008502e900650c980069
:103b9000b800900004007800d1f2070048029000bd
:103ba00010002000e00f52000700320068004400bf
:103bb0008902070000027800b0ff2f00e00f5200da
:103bc00001003a0010002000f4f12f00260420002c
:103bd000160b62004f04780000000600889fbe00ac
:103be0008204780000047800e80a9000780a9000c7
:103bf000848f52000f0031000001eb0008007800b4
:103c00003bfd0700e08f54000a003a00180a9000bc
:103c1000e00f520007003200720044006e020700fd
:103c20008004780009f0a7008904ea008904ea000a
:103c3000cf4cde00090078004f04be0000000600f3
:103c4000889fbe000004780001027800820478009a
:103c5000e80a90000000eb00808f52001d00320047
:103c600008119000b802900082824200350498004a
:103c700018039000868f52000200390098027800e5
:103c800035049800e80a90008502e900650c980068
:103c9000b80090000400780091f2070010002000a6
:103ca0000002eb00990f12000a003a00480290004f
:103cb000e00f52000700320068004400460207008f
:103cc0000002780010002000e00f520001003200d6
:103cd000800c78004f04be00000006000200fa00cd
:103ce000889fbe008a1f780058052000ea0a20003d
:103cf0000000eb00dcfa0700d8f907008004780028
:103d00008001eb00c3bf9f0048e78800f20a200053
:103d1000e880570020e78000c1fd0700e00f500059
:103d20000200320014002000f4e68800cbf90700fe
:103d3000890450008a8f540002003e0014002000c5
:103d4000f4e68800e40b2000848f54000200360063
:103d500014002000f4e6880048e788000000eb002b
:103d6000c1fa0700bdf907008004780048e7880021
:103d70008001eb00f20a2000e880570020e7800075
:103d80004ffe0700e00f5000020032001400200038
:103d9000f4e68800b1f90700890450008a8f5400c6
:103da00002003e0014002000f4e68800e40b20002e
:103db000848f54000200360014002000f4e68800ce
:103dc00048e78800dc3cec00c9ff37000400fa003b
:103dd000889fbe008a9fbe008c1f78005805200077
:103de0008004eb0099bf9f00ab002000895cdd00e0
:103df0009af90700000578008001eb0009017800be
:103e0000ec80570020e780002dfe0700e00f5000f7
:103e10000200320014002000f4e688008ff9070049
:103e20000a0550008a8f540002003600140020005a
:103e3000f4e68800ef844400890f55000200360044
:103e400014002000f4e688001fba97008404e800fc
:103e500099bf9f00e48f5400e4ff34008002eb0020
:103e600095bf9f008004eb001a00200089017800b4
:103e700009017800ee80570020e7800068fd070008
:103e8000e10f500001003200fae688009fba970067
:103e90000502e80094bf9f00e40f5200f3ff3400d6
:103ea0008004eb0099bf9f00ac0020001b002000a5
:103eb0008964dd0069f90700000578008001eb00e6
:103ec00009017800ee80570020e7800054fd0700cc
:103ed000e00f500001003200fbe688005ff90700a8
:103ee0000a0550008a8f540001003600fbe6880066
:103ef000ef844400890f550001003600fbe688007e
:103f00001fba97008404e80099bf9f00e48f540013
:103f1000e7ff3400e83cef0030e78000e4f80700fa
:103f200044e78000880f520006003200490120005b
:103f300009007800e9f9070044e78000880f520083
:103f4000fbff3a0040012000e4f907000002eb000b
:103f500044e7880094bf9f008001eb0003017800d4
:103f6000ec80570020e78000d5fd0700e10f5000ee
:103f70000200320014002000f4e688008001eb000b
:103f800003017800ee80570020e7800024fd070041
:103f9000e10f50000200320014002000f4e6880017
:103fa00044e78000880f520002003a00140020000d
:103fb000f4e688003100200030e780007bf807003d
:103fc00044e78000880f520002003a0014002000ed
:103fd000f4e688008000eb0030e7800073f807000b
:103fe0009fba97000502e80094bf9f00e40f5200bb
:103ff000d9ff340044e78000880f520006003200e9
:104000004901200009007800b4f9070044e7800066
:10401000880f5200fbff3a0040012000aff9070073
:104020000002eb0044e7880094bf9f0019002000c5
:104030008001eb0003017800ec80570020e780004e
:104040009ffd0700e10f500001003200f9e68800f3
:104050009fba97000502e80094bf9f00e40f52004a
:10406000f3ff340030e7800091f8070044e7800058
:10407000880f520006003200490120000900780034
:1040800096f9070044e78000880f5200fbff3a00d2
:104090004001200091f907000002eb0044e788008e
:1040a00094bf9f008001eb0003017800ee80570071
:1040b00020e78000dafc0700e10f50000200320028
:1040c00014002000f4e688008001eb000301780072
:1040d000ec80570020e7800079fd0700e10f5000d9
:1040e0000200320014002000f4e6880044e780005b
:1040f000880f520002003a0014002000f4e6880005
:104100003100200030e7800028f8070044e78000f5
:10411000880f520002003a0014002000f4e68800e4
:104120008000eb0030e7800020f807009fba97007e
:104130000502e80094bf9f00e40f5200d9ff34004d
:1041400044e78000880f5200060032004901200039
:104150000900780061f9070044e78000880f5200e9
:10416000fbff3a00400120005cf90700da3cec005c
:104170001bff37000041eb00210020005000200011
:1041800089fc070020e788006033b80086027800c9
:10419000140020008601780092062000c1f128005a
:1041a00060ee21006bf707006033b80065ce210098
:1041b00006027800860178009206200031f228007d
:1041c000e0e6210063f73700d7e6800016e78000bd
:1041d000e5e680000000eb0004e78000848f5200d9
:1041e0000500320006836b0006f0a7000603ea0014
:1041f0000600ea004f00de00f4e68000e10f520006
:1042000001003a000000eb00dc1cf800e01cf900a3
:10421000da1cf800e21cf90000000600889fbe00ce
:104220008a9fbe008005780001057800820478002e
:10423000c00120009b060700000478000080eb000e
:10424000e00f54002e00320064e38000e00f5200c3
:104250000f003a0068e38800a0c721002b06070082
:1042600040c821002906070080c921002706070051
:1042700020ca210025060700e0c62100230607000a
:1042800084c92100a4e4880024ca2100b4e4880081
:10429000e00f5500010032001a0020000002eb0080
:1042a000540c98003a0c9800490c98008804780047
:1042b0008b1c7800090078001c0607006c00440085
:1042c0001a06070048049800180c980062051500ab
:1042d0006a04980038089000c4e38000840f5000fe
:1042e00001003600c0e388006a00b900a4c72100bd
:1042f00000004200890078000f060700100020002f
:104300004f05be004f04be0000000600889fbe009f
:104310008104780098e48000080440006c9cec0064
:104320002206070061e380009800980094e4800072
:10433000840f5400040031008180e800b0e4800064
:1043400007060700030037008180e800a0e4800032
:1043500003060700e08f54000400320061e3800090
:10436000ec80400009007800fd0507004f04be0006
:1043700000000600889fbe008a1f780074e380005a
:10438000e00f52001d003200aac721001402800075
:104390000450a0000460a1000470a1001402880071
:1043a00000000000a4e38000340490006c0044008e
:1043b000fe050700f4f12f0025042000950a620095
:1043c0008884e80009007800f805070038089000a4
:1043d000c4e38000840f500001003600c0e3880071
:1043e0006a00b9000000450089007800d205070086
:1043f00074e38000e00f5200e4ff3a0017f8070072
:1044000074e480000402500084e48800aac72100fc
:104410003900370094e480000402e80094e4880046
:104420008502e90085e48800e00f520004003a00ac
:10443000a5e48000961cf800941cf900b5e48800ff
:10444000a5e480000003eb00950f13002a00320062
:10445000b50290003504900098029000848f5200bd
:104460000700360024003700340290003404900026
:104470009802900094e48000848f52001e003e0059
:10448000140280000450a0000460a1000470a10088
:1044900014028800000000008884e8000900780009
:1044a000c2050700280a9000e00f52000200320007
:1044b0006c004400bd050700f4f12f002504200026
:1044c000950a620038089000c4e38000840f500011
:1044d00001003600c0e388006a00b9000000450012
:1044e0008900780094050700a4e480000003eb0035
:1044f000940f1300dcff3a0085e48000e08f520047
:10450000c4ff3a00921cf8008e1cf900c4e380003e
:104510006a23b900a5c72100e5027b00e08f5200a5
:1045200011003a00e00f5200280032000403e900b5
:104530006a33b900a5c72100868242000500370012
:10454000ea825200e00f520002003a00c4e3880001
:104550001e0037000402e9000003eb00950f130072
:10456000f7ff3200c4e388006a23b90086027800ae
:104570000583e800a7c7210067037b0016039000ae
:104580000780e80006b07a00e48242008783420098
:10459000870f530004003a006a20b900c5c7210004
:1045a00016039000863278006a22b9000482e8007f
:1045b000a5c7210065027a003400900060e38800fe
:1045c000c008900010027800040001004f05780038
:1045d0004f04be0000000600889fbe00300290001d
:1045e000b40490006c844400080078006f05070054
:1045f00088007800e0c621004f0507001000200069
:10460000b90a900064e38000340a9000848f52005d
:10461000010031000000eb004f04be000000060066
:104620000200fa00889fbe008a9fbe008004eb0053
:10463000b9bf9f00000478000005eb001b002000bc
:10464000010037008b047800180190008a0178007f
:10465000ea8057001800780071fb0700e10f500056
:10466000f8ff3a00e08f540002003a002802900060
:10467000140ae8003fba97000402e800b4bf9f00a4
:10468000f1ff37000200fa00889fbe008a9fbe003b
:104690008c1f7800000478008005eb000b05780083
:1046a0008004eb001c0020000200370004057800a5
:1046b0008c0578001801900089017800ec80570083
:1046c00018007800fefb0700e10f5000f9ff3a00e8
:1046d0002fba97008a0f5200f4ff3a00e08f55007e
:1046e00002003a00a8029000950ae8000405e800dc
:1046f000f0ff3700889fbe008a9fbe008c1f7800a5
:10470000000678006000200066050700800478003d
:104710000041eb00210020001000200022fb0700d8
:10472000800c78008b3e20009b049800c4ca2100b6
:10473000a4049800600020005a05070000057800d6
:10474000190d78000004eb001805980024cb210017
:104750002405980088037800080378008802780010
:104760000c027800890178009206200021eb2800d5
:1047700020342200f7f5070088037800080378004a
:1047800088027800080278008a01780092062000ea
:10479000a1eb280000312200eef5070060002000a8
:1047a00040050700800478000841780021002000bf
:1047b00010002000fcfa0700800c78009804980094
:1047c00044cb2100a40498006000200035050700b8
:1047d00000057800190d78001b059800e4ca210037
:1047e0002405980088037800080378008802780080
:1047f00008027800890178009206200021ec280048
:1048000020342200d3f507008803780008037800dd
:10481000880278000c0278008a0178009206200055
:10482000a1ec280000312200caf50700600020003a
:104830001c05070080047800084178002100200052
:1048400050002000d8fa0700800c78009b049800e4
:1048500064cb2100a404980060002000110507002b
:1048600000057800190d78001b05980004cb210085
:1048700024059800880378000803780088027800ef
:1048800008027800890178009206200021ed2800b6
:1048900000312200aff50700880378000803780094
:1048a00088027800080278008a01780092062000c9
:1048b000a1ed280020342200a6f507004f0678005d
:1048c0004f05be004f04be0000000600881f7800a0
:1048d000c6cb210067cb2100070178008600780055
:1048e0000002eb00100020000004eb0084024200f4
:1048f000c3ca2100e3827a00d68f520001003a0039
:104900000800780084024200c3ca2100e3a87a00ac
:1049100023cb2100e3827a00d28f520001003a00bb
:10492000080078008402420023cb2100e3ab7a0028
:104930000402e800e30f5200ecff3a004f04780055
:10494000000006004200f800801f780000022000ee
:1049500010028800811f7800829fbe00849fbe00e5
:10496000869fbe00889fbe008a9fbe008c9fbe00af
:104970008e1f78003600f8003200f8002200f800a0
:104980002400f8002600f8002800f8002a00f800ab
:104990002c00f8003800f8003a00f8003c00f8005d
:1049a0003e00f8004000f8004400f8003400f80031
:1049b000e0e78000801f78002000f80020e0800001
:1049c0000f0878007cf7070020e0800010007800d6
:1049d000020e200012028800c00078000101880049
:1049e0008007780002022000120288004f00780041
:1049f000e0e788003400f9004400f9004000f900c5
:104a00003e00f9003c00f9003a00f9003800f900d6
:104a10002c00f9002a00f9002800f9002600f9000e
:104a20002400f9002200f9003200f9003600f900f4
:104a30004f0778004f06be004f05be004f04be0072
:104a40004f03be004f02be004f01be004f00be002c
:104a50004200f9000000060000000600889fbe002a
:104a60008a1f780000047800011c7800001ceb000d
:104a70008f04780089007800020078004200f80076
:104a8000801f78000002200010028800811f78003b
:104a9000829fbe00849fbe00869fbe00889fbe008e
:104aa0008a9fbe008c9fbe008e1f78003600f800e3
:104ab0003200f8002200f8002400f8002600f80078
:104ac0002800f8002a00f8002c00f8003800f80050
:104ad0003a00f8003c00f8003e00f8004000f80002
:104ae0004400f8003400f8000f057800090555006f
:104af0000a01780008007800f9ee070089077800bd
:104b00000002eb00040c78000a00a1000a00440037
:104b1000041878004f0578004f04be00000006001e
:104b2000000006000002eb0024088800040888004a
:104b300064352100140888002405800004c0a0000a
:104b400004d0a10004e0a100240588008460a9002d
:104b50009460a8000481a80004a1a90005e1a800b0
:104b600000000600efff070097ff37001000050068
:104b7000140280000450a0000460a1000470a10091
:104b80001402880000000000fc3cec00000006005d
:104b9000e4e780000402e900e4e7880003003a004b
:104ba000f4f12f0025042000950a620000000600a1
:104bb0003600f800809fbe00829fbe00849fbe002a
:104bc000869fbe003400f80000002000a00188008d
:104bd0008460a9002cf60700e00f500002003200ac
:104be00058ff0700000000003400f9004f03be002a
:104bf0004f02be004f01be004f00be003600f9005c
:104c000000400600881f7800020478000041eb0095
:104c10001100200008007800e3f9070070e7880021
:104c20000041eb001100200008007800def90700c9
:104c300050e7880021e2a90021a2a9002182a90051
:104c40002162a900f4cf2f0005222000950a6200fe
:104c500020e2a90020c2a90020a2a9002082a90068
:104c60002062a90094ff2f0005222000950a62000f
:104c70002002a900041020004411880023e2a900aa
:104c800023c2a90023a2a9002362a9002342a900ec
:104c90002322a9002302a900f4f32f0025222000db
:104ca000950a620022a2a9002282a9002262a9001c
:104cb0002242a9002222a9002202a9008580a9007f
:104cc0009580a8008560a9009560a80021e2a80051
:104cd0002342a8000000eb004f047800000006000b
:104ce0008001eb0070e7800075fa070000f0a70074
:104cf0000000ea000000ea004f00de0000000600ad
:104d00000200fa00e1ff9f008001eb008f80e900c4
:104d100050e78000c2f90700000278000000eb00b5
:104d2000e10f520006003a001000200064e7800006
:104d3000e00f520002003200ec3cef008580a8003a
:104d40000080fa0000000600000006003600f800af
:104d5000809fbe00829fbe00849fbe00869fbe00d3
:104d6000881f78003400f80000002000a0018800af
:104d70000400fa000002eb00f4bf9f008560a90068
:104d80002202ab000a0032000004eb003411800064
:104d9000c4ff9f00880178000f81e900e48057007c
:104da00070e7800001fa07002202ab00f7ff3a002b
:104db0007fba9700e00f520003003200a2240200e5
:104dc00000000000000000000080fa003400f9003c
:104dd0004f0478004f03be004f02be004f01be00db
:104de0004f00be003600f900004006003600f80013
:104df000809fbe00829fbe00849fbe00869fbe0033
:104e0000881f78003400f80000002000a00188000e
:104e10000400fa000002eb00f4bf9f008580a900a7
:104e200004202000151180000502620010003a00e5
:104e3000082020000f81e900e480570050e780003f
:104e40008bfa0700e10f500007003a00cffa9700f5
:104e50000502fb0024118800151180000502640082
:104e6000f4ff3200020037001400200064e78800dd
:104e70007fba9700e00f520003003200a224020024
:104e800000000000000000000080fa003400f9007b
:104e90004f0478004f03be004f02be004f01be001a
:0c4ea0004f00be003600f9000040060084
:020000040000fa
:104eac006c1c00004000000000000000041c00000e
:104ebc006800000000000000fa1c00000200000066
:104ecc0002000000ffff0000fc1c000002000000bc
:104edc0002000000ef0000000008000004140000b5
:104eec0000000000ac1c00001800000000000000d6
:104efc00da1c00001000000000000000f61c00008e
:104f0c000400000000000000fe1c00000200000075
:104f1c000200000001000000001d00000200000063
:104f2c0000000000021d0000020000000000000054
:104f3c00c41c00001600000000000000041d00004e
:104f4c000200000000000000ea1c00000600000047
:104f5c0000000000f01c0000060000000000000033
:104f6c00061d00000200000000000000a81d00004b
:104f7c002a000000020000003031320033343500ca
:104f8c003637380039414200434445004600300072
:104f9c003132330034353600373839006162630002
:104fac006465660000286e00756c6c0029000000ba
:104fbc00081d0000a000000002000000010000001d
:104fcc000000000000000a000000000000000000cb
:104fdc00006400000000000000000000e803000076
:104fec00000000000000100027000000000000007e
:104ffc0000a08600010000000000000040420f00ed
:10500c0000000000000080009698000000000000e6
:10501c000000e100f50500000000000000ca9a0045
:10502c003b00000000000000e40b540002000000f4
:10503c000000e80076481700000000000010a500f2
:10504c00d4e8000000000000a0724e001809000017
:10505c00000040007a10f3005a0000000080c600e7
:10506c00a47e8d000300000000c16f00f2862300b7
:10507c00000000008a5d78004563010000006400b8
:10508c00a7b3b600e00d000000e889000423c700b8
:10509c008a000000d21d0000240000000200000065
:1050ac00fa1d000000fa1d000900000000020000bb
:1050bc00fc1d000000fc1d000e02010000000000a1
:1050cc0000000000000000000602020000000000ca
:1050dc00f61d00000200000002000000d21d0000be
:1050ec00f81d00000200000000000000fa1d000086
:1050fc000200000000000000fc1d00000200000087
:10510c0000000000fe1d0000020000000200000074
:08511c0001000000000000008a
:020000040000fa
:105124000200fa00889fbe008a9fbe008c9fbe00ca
:105134000006eb001dc4b3009ac5b3008bc5b300d1
:105144000d4478008084eb0009017800ee8057005c
:105154000000eb00e1fe0700e00f50000500320004
:105164002ff29700884f520016003a00f81cec000a
:10517400480107000844e8008a4f5400f2ff3a004f
:10518400f81cec008000eb002d010700e10f560035
:10519400ebff3c000900370008017800ee8057005f
:1051a4000000eb00cdfe07002ff297008b4f52005a
:1051b400f9ff3a000c06e800e1ff3700f63cec008a
:1051c400dfff3700f81cec008000eb001c01070037
:1051d4000084eb002ff297008b4f5200eeff3a0051
:1051e400f4ff3700889fbe000004eb0019c4b3002d
:1051f400080178008940780008007800bffe0700a5
:10520400fbff3700889fbe008a9fbe0019c4b3000d
:105214008ac5b3006b092000090037000801780033
:105224008940780008007800b4fe0700e10f5000c0
:10523400faff3a00c0e78000160107008944e8003d
:105244000004eb008acf5400f4ff34008000eb002c
:10525400c0e78000fa0007007ff407006300400005
:10526400110009000b80d8008000fd001403200009
:10527400840f500001003e002003200016f50700b3
:1052840019c4b300eeff3700881f780000047800cb
:105294000202be00c1e78800820120000400be00b3
:1052a40057fe07006033b800860278000802e90060
:1052b400860178009206200081ef280040902200a9
:1052c40023f307006033b8008602780008027800f0
:1052d4008601780092062000e1ef2800408f22002a
:1052e4001bf307006033b8008602780008027800d8
:1052f400860178009206200051f0280020892200bf
:1053040013f307004f04780000000600b0e78000a4
:10531400f63cef0000f0a7000000ea000000ea00fd
:105324004f00de00000006000200fa00881f78002b
:1053340000047800580a9000251c2000850f5200b4
:105344000e0032008502e800850f5200140032007e
:10535400e00f52001a003a000081eb00e48057008d
:1053640000e88000d5f90700e40f400007003a0088
:10537400241c2000540c9800110037000001eb009d
:10538400e480570000e88000ccf90700e50f4000f6
:1053940004003a00341c2000540c98000800370024
:1053a40010002000e10f500002003200fe3cef002c
:1053b400e9ff37006fb89700b6000700e6ff370033
:1053c4004f0478000080fa00000006000200fa0092
:1053d400881f7800e1bf9f0000047800580a9000fd
:1053e40025182000850f52001300320003003e00f0
:1053f400e00f520007003200260037003518200065
:10540400850f520015003200f3824200850f5200ce
:1054140020003a000001eb00e480570000e880001f
:1054240065f90700e40f400007003a002418200043
:10543400540c9800170037000001eb00e48057007b
:1054440000e880005cf90700e50f400004003a0022
:1054540034182000540c98000e003700100020006f
:10546400e10f500001003200fe3cef006fba9700dc
:1054740004024200c5f0280065007a00e00f5000e5
:10548400020032008000eb009ffb0700641920003b
:10549400540c98004f0478000080fa0000000600c5
:1054a400889fbe008a9fbe00800478000041eb0004
:1054b4002100200010002000baf7070000e888004f
:1054c400e00f500013003200e88f54000100360052
:1054d40089002000e08f54000a0032000004eb0031
:1054e4000005eb008b9e2200080178008a007800fa
:1054f4000b00780048fb07000804e800888f54007c
:10550400f9ff3e000001eb00110020006099220029
:1055140041fb07004f05be004f04be00000006001b
:10552400f0e780000000060094022000343a88006e
:10553400f4f32f0045742000950a620004fe2f0046
:1055440046742000160b6200f48f2f00477420006d
:10555400970b62004567a900a509200016002000ea
:105564008407200037742000844b7800854b780032
:10557400864b7800163a80000600a00075052000ce
:105584006404200027742000844b7800854b780045
:10559400864b78000600270005002100173a80009a
:1055a40007026300850f5200fcff3a000502200049
:1055b400163a800006826200fdff320040a7a9006f
:1055c4006ac0a9006ae0a9000002eb000416880082
:1055d4001416880024e88800f70d2000153a80008e
:1055e4008583630076052000650420002074200074
:1055f40005487800064878000748780004168800b3
:10560400241688001416880044168800c822a800ae
:1056140004fe2f0006368000860262003500b300c7
:105624000536880027358000070262000400a000c8
:1056340024358800f40f2000641988000000060057
:10564400881f7800180020000044dd00e08f50001f
:105654000700320045fd070024e8800008007200be
:1056640020e888001016880048fd0700070037006e
:105674003efd07000884ea0024e880000804620074
:1056840028e888001816880040fd07004f047800b9
:1056940000000600881f7800180020000044dd0088
:1056a40032fd070024e88000840264000500320013
:1056b4000884ea000402640024e8880014168800c0
:1056c400030037000804720028e8880018168800d0
:1056d4002efd07004f047800000006001000200093
:1056e400fdf3070040002000fbf33700889fbe0055
:1056f4008a1f78000042eb00904f12000d00320028
:1057040000047800190020004a0020000000000076
:10571400000000000000000009007800eef307001c
:105724000a007800ecf307000042eb00d84f1200a7
:10573400f6ff3a004f0578004f04be000000060053
:105744000400fa00889fbe008a1f7800f000200041
:10575400e1f307000000000000000000000000006a
:1057640040002000dcf3070040002000daf30700cb
:1057740040002000d8f307000000000000000000f3
:105784000000000040002000d3f3070004f02f00c5
:10579400452c2000950a620024168000880320000e
:1057a40004027400241688000000000000000000b9
:1057b40040002000c8f3070008407800c7ff070036
:1057c400c0c0b300c5ff070060c0b300c3ff07003b
:1057d40010c0b300c1ff070020ee2800c3ff07007c
:1057e4006044b8000accb300880178000081eb0063
:1057f400ea80570030e88000b0f70700e10f50005e
:10580400f9ff3a00b5ff07006182640003003a0023
:1058140020c0b300b1ff0700020037000a4078003f
:10582400aeff07008904e8004fb89700afff0700f8
:105834003fb89700a8f30700ebff37000041eb00e7
:105844004100200030002000d6f6070030e8880030
:105854006033b800860278001400200086017800c6
:105864009206200031ef280020ba2200b8f1070088
:1058740030e8800000000600e8874700889fbe00eb
:105884008a9fbe008c1f78008e1f78000004eb00f6
:1058940088bf9f0064cc210094bf9f00eef20700f4
:1058a40072875700001f7800c9e728004ae82800db
:1058b400cbe828004cea230081bb2000728057000b
:1058c40097f3070089000700e10f5000050032003c
:1058d40064cc210007000900395a78008900b1001e
:1058e4001800200089fe0700e10f50000500320077
:1058f40065cc210007000900ba5a78008a00b1007b
:10590400180020002ffa0700e10f500005003200b4
:1059140064cc2100070009003b5a78008b00b100d9
:1059240018002000e8fb0700e10f500007003200d8
:1059340044e9280065cc210007000900b45a780026
:105944008400b100180020000a003700e00f540062
:1059540008003a0084e780007922b900841f4600d9
:10596400c4e92800841f780060cc210062eb0700a2
:10597400e48757008001eb000081eb008e00780083
:1059840020e68000a5f60700cbff3700e6fe0700ff
:105994002000200056fb07000000eb004b0007002e
:1059a40050002000befe07008000eb0002b024007f
:1059b400030020002000200033fe0700ecf907005c
:1059c4006033b80086027800340020008601780035
:1059d400220d2000c1ea2800e0c322005cf1070088
:1059e40096ff070020e6880000e224007f000700fd
:1059f4007af20700000005005dfa37000400fa009f
:105a0400889fbe008a9fbe008c9fbe0080047800e1
:105a14000004eb007a4429003b002000bc712700fd
:105a2400edff2f000100370018002000b40720000c
:105a34000500200084bf9f0095bf9f000fba970008
:105a44009fba97000402450085824d0084bf9f00e1
:105a540095bf9f000fba97009fba9700d6ff2f00fb
:105a640006abb90004035300d7ff2f000722b80088
:105a74008502430084bf9f0095bf9f000fb8970025
:105a84009fb897007200200003002000f4ea07008a
:105a94000002be0084bf9f0095bf9f000fba97000d
:105aa4009fba97008c0f52008d8f5a00deff3a0088
